:100000000C942A000C94340B0C94790B0C94BE0BBA
:100010000C9447000C9447000C9447000C94470044
:100020000C9447000C9447000C94BA160C94ED16EF
:100030000C9447000C9447000C9447000C94470024
:100040000C9447000C9447000C9447000C94470014
:100050000C94470011241FBECFE5D4E0DEBFCDBF16
:1000600010E0A0E6B0E0EAEDF5E302C005900D92E5
:10007000A837B107D9F710E0A8E7B0E001C01D929A
:10008000A838B107E1F70E945B180C94EB1A0C94A6
:100090000000EF92FF920F931F937B018C0120E0F1
:1000A00030E040E05FE40E94490388238CF0C801FF
:1000B000B70120E030E040E05FE40E94C1010E940F
:1000C000A9039B01AC01205030404040504806C07D
:1000D000C801B7010E94A9039B01AC01B901CA0183
:1000E0001F910F91FF90EF900895A0E0B0E0EBE733
:1000F000F0E00C94B41ADC012B01FA019C919230CF
:1001000008F439C1EB018881823008F433C194309E
:1001100069F4843009F02FC111969C91119789815F
:10012000981709F428C1A0E6B0E025C1843009F48D
:1001300021C18230A9F4923009F01DC19A01AD01AC
:1001400088E0EA010990AE01E90109929E0181501F
:10015000C1F7E201898111969C918923818308C1AD
:10016000923009F407C112962D903C901397EB0141
:100170008A819B811496AD90BD90CD90DC901797AD
:10018000EC80FD800E811F819101281B390BB90184
:1001900037FF04C066277727621B730B6032710537
:1001A0000CF061C0121613066CF537014801062EDB
:1001B00004C096948794779467940A94D2F721E0C8
:1001C00030E040E050E004C0220F331F441F551FB1
:1001D0006A95D2F721503040404050402E213F21B7
:1001E00040235123211531054105510521F021E01E
:1001F00030E040E050E079018A01E628F72808293C
:1002000019293CC0232BD1F1260E371E350146019A
:10021000062E04C096948794779467940A94D2F734
:1002200021E030E040E050E004C0220F331F441FC3
:10023000551F6A95D2F721503040404050402A2146
:100240003B214C215D21211531054105510521F04E
:1002500021E030E040E050E059016A01A628B728CB
:10026000C828D9280BC0821593052CF01C01AA249C
:10027000BB24650103C0EE24FF24870111969C91E5
:10028000D20111968C91981709F445C0992339F041
:10029000A80197012A193B094C095D0906C0A6016E
:1002A00095012E193F09400B510B57FD08C01182D3
:1002B0003382228224833583468357831DC081E0A5
:1002C00081833382228288279927DC01821B930B4A
:1002D000A40BB50B84839583A683B7830DC0220F2F
:1002E000331F441F551F24833583468357838281E0
:1002F000938101979383828324813581468157813D
:10030000DA01C9010197A109B1098F5F9F4FAF4F72
:10031000BF4328F30BC0918333822282EA0CFB1C7B
:100320000C1D1D1DE482F5820683178383E0808304
:10033000248135814681578157FF1AC0C901AA27F8
:1003400097FDA095BA2F81709070A070B0705695EF
:10035000479537952795822B932BA42BB52B848318
:100360009583A683B7838281938101969383828349
:10037000DF0101C0D201CD01CDB7DEB7E2E10C94BF
:10038000D01AA0E2B0E0E7ECF1E00C94C01A698367
:100390007A838B839C832D833E834F835887E9E048
:1003A000EE2EF12CEC0EFD1ECE010196B7010E943F
:1003B000D2048E010F5E1F4FCE010596B8010E9438
:1003C000D2048A8991E089278A8BC701B801AE01DE
:1003D000475E5F4F0E9475000E94FD03A096E6E015
:1003E0000C94DC1AA0E2B0E0E8EFF1E00C94C01A43
:1003F00069837A838B839C832D833E834F835887C5
:10040000F9E0EF2EF12CEC0EFD1ECE010196B701A6
:100410000E94D2048E010F5E1F4FCE010596B801D7
:100420000E94D204C701B801AE01475E5F4F0E942F
:1004300075000E94FD03A096E6E00C94DC1AA0E291
:10044000B0E0E5E2F2E00C94B41A69837A838B831E
:100450009C832D833E834F835887CE010196BE0136
:10046000675F7F4F0E94D204CE010596BE016F5E8A
:100470007F4F0E94D2049985923088F0898982301A
:10048000C8F0943019F4823051F404C0843029F457
:10049000923081F480E690E0C6C0923049F420E0CA
:1004A0009A858A89981321E02A87CE010996BBC0D4
:1004B000823049F420E09A858A89981321E02A8BBA
:1004C000CE014196B0C02D843E844F8458886D88FB
:1004D0007E888F88988CEE24FF248701AA24BB2471
:1004E000650140E050E060E070E0E0E0F0E0C10174
:1004F00081709070892BE9F0E60CF71C081D191D1E
:100500009A01AB012A0D3B1D4C1D5D1D80E090E062
:10051000A0E0B0E0E614F7040805190520F481E036
:1005200090E0A0E0B0E0BA01A901480F591F6A1F8E
:100530007B1FAA0CBB1CCC1CDD1C97FE08C081E0F5
:1005400090E0A0E0B0E0A82AB92ACA2ADB2A3196B6
:10055000E032F10549F0660C771C881C991C569412
:10056000479437942794C3CFFA85EA892B893C892D
:100570008B859C85280F391F2E5F3F4F17C0CA01FE
:1005800081709070892B61F016950795F794E79428
:1005900080E090E0A0E0B0E8E82AF92A0A2B1B2BC3
:1005A00076956795579547952F5F3F4F77FDE7CF36
:1005B0000CC0440F551F661F771F17FD4160EE0CDE
:1005C000FF1C001F111F21503040403090E05907A0
:1005D00090E0690790E4790760F32B8F3C8FDB0193
:1005E000CA018F779070A070B07080349105A1051A
:1005F000B10561F447FD0AC0E114F10401051105DC
:1006000029F0405C5F4F6F4F7F4F40781A8EFE1786
:1006100011F081E08A8F4D8F5E8F6F8F78A383E01A
:10062000898FCE0149960E94FD03A096E2E10C94C9
:10063000D01AA8E1B0E0EFE1F3E00C94C01A6983AE
:100640007A838B839C832D833E834F83588789E0F5
:10065000E82EF12CEC0EFD1ECE010196B7010E9492
:10066000D2048E010F5E1F4FCE010596B8010E9485
:10067000D2048985823040F08989823028F0C70110
:10068000B8010E944A0501C08FEF6896E6E00C941D
:10069000DC1AA8E1B0E0EFE4F3E00C94C01A69833F
:1006A0007A838B839C832D833E834F83588789E095
:1006B000E82EF12CEC0EFD1ECE010196B7010E9432
:1006C000D2048E010F5E1F4FCE010596B8010E9425
:1006D000D2048985823040F08989823028F0C701B0
:1006E000B8010E944A0501C08FEF6896E6E00C94BD
:1006F000DC1AA8E1B0E0EFE7F3E00C94C01A6983DC
:100700007A838B839C832D833E834F83588789E034
:10071000E82EF12CEC0EFD1ECE010196B7010E94D1
:10072000D2048E010F5E1F4FCE010596B8010E94C4
:10073000D2048985823040F08989823028F0C7014F
:10074000B8010E944A0501C081E06896E6E00C9479
:10075000DC1AACE0B0E0EFEAF3E00C94C41A698371
:100760007A838B839C83CE010196BE016B5F7F4FA2
:100770000E94D2048D81823061F1823050F1843048
:1007800021F48E81882351F12EC02F81388537FDC9
:1007900020C06E812F3131051CF06623F9F023C093
:1007A0008EE190E0821B930B29853A854B855C8511
:1007B00004C056954795379527958A95D2F76623B5
:1007C000B1F050954095309521953F4F4F4F5F4F79
:1007D0000EC020E030E040E050E009C02FEF3FEFD6
:1007E0004FEF5FE704C020E030E040E050E8B9019F
:1007F000CA012C96E2E00C94E01ADF92EF92FF928D
:100800000F931F93FC01E480F58006811781D1804E
:100810008081823048F480E090E0A0E1B0E0E82AF6
:10082000F92A0A2B1B2BA5C0843009F49FC0823003
:1008300021F4EE24FF24870105C0E114F104010531
:10084000110519F4E0E0F0E096C0628173819FEF3A
:10085000623879070CF05BC022E83FEF261B370BAC
:100860002A3131052CF020E030E040E050E02AC091
:10087000B801A701022E04C0769567955795479554
:100880000A94D2F781E090E0A0E0B0E004C0880FC5
:10089000991FAA1FBB1F2A95D2F70197A109B10979
:1008A0008E219F21A023B1230097A105B10521F03E
:1008B00081E090E0A0E0B0E09A01AB01282B392B59
:1008C0004A2B5B2BDA01C9018F779070A070B07052
:1008D00080349105A105B10539F427FF09C0205CDA
:1008E0003F4F4F4F5F4F04C0215C3F4F4F4F5F4F13
:1008F000E0E0F0E02030A0E03A07A0E04A07A0E402
:100900005A0710F0E1E0F0E079018A0127C0603871
:10091000710564F5FB01E158FF4FD801C7018F77DE
:100920009070A070B07080349105A105B10539F4C4
:10093000E7FE0DC080E490E0A0E0B0E004C08FE3EB
:1009400090E0A0E0B0E0E80EF91E0A1F1B1F17FFA1
:1009500005C016950795F794E794319687E01695AC
:100960000795F794E7948A95D1F705C0EE24FF2404
:100970008701EFEFF0E06E2F679566276795902F60
:100980009F77D794DD24D7948E2F8695492F462BB9
:10099000582F5D29B701CA011F910F91FF90EF9069
:1009A000DF900895FC01DB01408151812281622F9B
:1009B0006F7770E0221F2227221F9381892F880FD3
:1009C000822B282F30E0991F9927991F11969C930D
:1009D000119721153105A9F54115510561057105DD
:1009E00011F482E037C082E89FEF13969C938E93B8
:1009F00012979A01AB0167E0220F331F441F551F66
:100A00006A95D1F783E08C930DC0220F331F441FEA
:100A1000551F12968D919C911397019713969C9355
:100A20008E931297203080E0380780E0480780E4FA
:100A3000580758F314962D933D934D935C93179755
:100A400008952F3F310579F4411551056105710570
:100A500019F484E08C93089564FF03C081E08C93C3
:100A600012C01C9210C02F57304013963C932E9307
:100A7000129783E08C9387E0440F551F661F771F02
:100A80008A95D1F7706414964D935D936D937C9322
:100A9000179708951F93DC01FB019C91923008F495
:100AA00047C08081823008F443C0943051F41196DD
:100AB0001C91843099F58181682F70E0611B710968
:100AC0003FC0843021F0923031F48230B9F181811D
:100AD000882389F12DC011961C9111978230F1F075
:100AE00081811817D9F412962D913C911397828128
:100AF00093818217930794F028173907BCF0149656
:100B00008D919D910D90BC91A02D248135814681C0
:100B10005781281739074A075B0718F4112341F05A
:100B20000AC082179307A407B50740F4112319F0F0
:100B300061E070E005C06FEF7FEF02C060E070E041
:100B4000CB011F910895DF93CF93CDB7DEB7A6E217
:100B5000B0E0E6E2F0E08081887F8C93A6E2B0E02E
:100B6000E6E2F0E0808186608C93A7E2B0E0E7E205
:100B7000F0E080818F7B8C93A7E2B0E0E7E2F0E0C9
:100B800080818F778C93A6E2B0E0E6E2F0E080818E
:100B90008F7D8C93A6E2B0E0E6E2F0E08081806891
:100BA0008C93CF91DF910895DF93CF9300D000D045
:100BB00000D0CDB7DEB789836A838A81813099F509
:100BC0008981282F30E03E832D838D819E81813065
:100BD0009105D1F02D813E81223031052CF48D819B
:100BE0009E81009761F050C02D813E8122303105F9
:100BF00081F08D819E818330910581F045C0EAE3CB
:100C0000F0E08FEF808340C0E7E3F0E08FEF808378
:100C10003BC0E4E3F0E08FEF808336C0E1E3F0E037
:100C20008FEF808331C08A81882371F58981282FD5
:100C300030E03C832B838B819C8181309105C9F00E
:100C40002B813C81223031052CF48B819C810097D3
:100C500061F01AC02B813C812230310571F08B810B
:100C60009C818330910569F00FC0EAE3F0E01082C7
:100C70000BC0E7E3F0E0108207C0E4E3F0E010828D
:100C800003C0E1E3F0E0108226960FB6F894DEBFD1
:100C90000FBECDBFCF91DF910895DF93CF93CDB736
:100CA000DEB728970FB6F894DEBF0FBECDBF89839D
:100CB0006A838A81813099F58981282F30E03887CD
:100CC0002F838F81988581309105D1F02F813885D0
:100CD000223031052CF48F819885009761F083C014
:100CE0002F8138852230310581F08F8198858330BE
:100CF000910581F078C0EBE3F0E08FEF808373C063
:100D0000E8E3F0E08FEF80836EC0E5E3F0E08FEF83
:100D1000808369C0E2E3F0E08FEF808364C08A8162
:100D2000882379F58981282F30E03E832D838D81BA
:100D30009E8181309105C9F02D813E81223031059F
:100D40002CF48D819E81009761F04DC02D813E81F4
:100D50002230310571F08D819E818330910569F0DB
:100D600042C0EBE3F0E010823EC0E8E3F0E0108226
:100D70003AC0E5E3F0E0108236C0E2E3F0E0108232
:100D800032C08981282F30E03C832B838B819C816A
:100D900081309105D1F02B813C81223031052CF43A
:100DA0008B819C81009761F01EC02B813C81223099
:100DB000310581F08B819C818330910581F013C0D6
:100DC000EBE3F0E08A8180830EC0E8E3F0E08A8103
:100DD000808309C0E5E3F0E08A81808304C0E2E318
:100DE000F0E08A81808328960FB6F894DEBF0FBEAC
:100DF000CDBFCF91DF910895DF93CF93CDB7DEB70D
:100E000027970FB6F894DEBF0FBECDBF89836A83E4
:100E10004B838B81813009F06FC08981282F30E0AE
:100E20003F832E838E819F818130910549F12E81F0
:100E30003F81223031052CF48E819F81009761F033
:100E4000D2C02E813F812230310571F18E819F8188
:100E500083309105E9F1C7C0AAE3B0E0EAE3F0E02E
:100E60008081482F8A81282F30E081E090E0022E97
:100E700002C0880F991F0A94E2F7842B8C93B3C0A9
:100E8000A7E3B0E0E7E3F0E08081482F8A81282FD4
:100E900030E081E090E0022E02C0880F991F0A9492
:100EA000E2F7842B8C939FC0A4E3B0E0E4E3F0E08E
:100EB0008081482F8A81282F30E081E090E0022E47
:100EC00002C0880F991F0A94E2F7842B8C938BC081
:100ED000A1E3B0E0E1E3F0E08081482F8A81282F90
:100EE00030E081E090E0022E02C0880F991F0A9442
:100EF000E2F7842B8C9377C08B81882309F073C031
:100F00008981282F30E03D832C838C819D81813025
:100F1000910559F12C813D81223031052CF48C81D1
:100F20009D81009769F05FC02C813D8122303105A1
:100F300089F18C819D818330910509F440C053C0B3
:100F4000AAE3B0E0EAE3F0E08081482F8A81282F0D
:100F500030E081E090E0022E02C0880F991F0A94D1
:100F6000E2F7809584238C933EC0A7E3B0E0E7E3EB
:100F7000F0E08081482F8A81282F30E081E090E0E6
:100F8000022E02C0880F991F0A94E2F780958423ED
:100F90008C9329C0A4E3B0E0E4E3F0E08081482F23
:100FA0008A81282F30E081E090E0022E02C0880F75
:100FB000991F0A94E2F7809584238C9314C0A1E3CF
:100FC000B0E0E1E3F0E08081482F8A81282F30E013
:100FD00081E090E0022E02C0880F991F0A94E2F788
:100FE000809584238C9327960FB6F894DEBF0FBEAE
:100FF000CDBFCF91DF910895DF93CF93CDB7DEB70B
:1010000027970FB6F894DEBF0FBECDBF89836A83E2
:101010004B838B81813009F06FC08981282F30E0AC
:101020003F832E838E819F818130910549F12E81EE
:101030003F81223031052CF48E819F81009761F031
:10104000D2C02E813F812230310571F18E819F8186
:1010500083309105E9F1C7C0ABE3B0E0EBE3F0E02A
:101060008081482F8A81282F30E081E090E0022E95
:1010700002C0880F991F0A94E2F7842B8C93B3C0A7
:10108000A8E3B0E0E8E3F0E08081482F8A81282FD0
:1010900030E081E090E0022E02C0880F991F0A9490
:1010A000E2F7842B8C939FC0A5E3B0E0E5E3F0E08A
:1010B0008081482F8A81282F30E081E090E0022E45
:1010C00002C0880F991F0A94E2F7842B8C938BC07F
:1010D000A2E3B0E0E2E3F0E08081482F8A81282F8C
:1010E00030E081E090E0022E02C0880F991F0A9440
:1010F000E2F7842B8C9377C08B81882309F073C02F
:101100008981282F30E03D832C838C819D81813023
:10111000910559F12C813D81223031052CF48C81CF
:101120009D81009769F05FC02C813D81223031059F
:1011300089F18C819D818330910509F440C053C0B1
:10114000ABE3B0E0EBE3F0E08081482F8A81282F09
:1011500030E081E090E0022E02C0880F991F0A94CF
:10116000E2F7809584238C933EC0A8E3B0E0E8E3E7
:10117000F0E08081482F8A81282F30E081E090E0E4
:10118000022E02C0880F991F0A94E2F780958423EB
:101190008C9329C0A5E3B0E0E5E3F0E08081482F1F
:1011A0008A81282F30E081E090E0022E02C0880F73
:1011B000991F0A94E2F7809584238C9314C0A2E3CC
:1011C000B0E0E2E3F0E08081482F8A81282F30E010
:1011D00081E090E0022E02C0880F991F0A94E2F786
:1011E000809584238C9327960FB6F894DEBF0FBEAC
:1011F000CDBFCF91DF910895DF93CF9300D000D082
:101200000F92CDB7DEB78A836B8319828A81282F2C
:1012100030E03D832C834C815D814130510541F1AB
:101220008C819D818230910534F42C813D81211582
:10123000310561F052C04C815D814230510551F160
:101240008C819D8183309105B9F147C0E9E3F0E0DD
:101250008081282F30E08B81882F90E0A90102C087
:10126000559547958A95E2F7CA018170898335C003
:10127000E6E3F0E08081282F30E08B81882F90E03A
:10128000A90102C0559547958A95E2F7CA01817078
:10129000898323C0E3E3F0E08081282F30E08B8155
:1012A000882F90E0A90102C0559547958A95E2F7ED
:1012B000CA018170898311C0E0E3F0E08081282FAA
:1012C00030E08B81882F90E0A90102C055954795A9
:1012D0008A95E2F7CA018170898389810F900F9006
:1012E0000F900F900F90CF91DF910895DF93CF93E0
:1012F00000D000D0CDB7DEB789836A83898184307E
:1013000008F062C08A818295807F8A838981282F34
:1013100030E03C832B838B819C818130910529F1C6
:101320002B813C81223031052CF48B819C810097EC
:1013300061F04AC02B813C812230310531F18B8133
:101340009C818330910589F13FC0ABE3B0E0EBE3D2
:10135000F0E080818F708C93ABE3B0E0EBE3F0E0E2
:1013600090818A81892B8C932FC0A8E3B0E0E8E3B9
:10137000F0E080818F708C93A8E3B0E0E8E3F0E0C8
:1013800090818A81892B8C931FC0A5E3B0E0E5E3AF
:10139000F0E080818F708C93A5E3B0E0E5E3F0E0AE
:1013A00090818A81892B8C930FC0A2E3B0E0E2E3A5
:1013B000F0E080818F708C93A2E3B0E0E2E3F0E094
:1013C00090818A81892B8C930F900F900F900F90B2
:1013D000CF91DF910895DF93CF9300D000D0CDB7A8
:1013E000DEB789836A838981843008F060C08FE02A
:1013F0008A838981282F30E03C832B838B819C81D9
:101400008130910529F12B813C81223031052CF46A
:101410008B819C81009761F04AC02B813C812230F6
:10142000310531F18B819C818330910589F13FC079
:10143000ABE3B0E0EBE3F0E08081807F8C93ABE343
:10144000B0E0EBE3F0E090818A81892B8C932FC090
:10145000A8E3B0E0E8E3F0E08081807F8C93A8E32C
:10146000B0E0E8E3F0E090818A81892B8C931FC083
:10147000A5E3B0E0E5E3F0E08081807F8C93A5E315
:10148000B0E0E5E3F0E090818A81892B8C930FC076
:10149000A2E3B0E0E2E3F0E08081807F8C93A2E3FE
:1014A000B0E0E2E3F0E090818A81892B8C930F9089
:1014B0000F900F900F90CF91DF910895DF93CF930E
:1014C000CDB7DEB7AFE5B0E0EFE5F0E08081806852
:1014D0008C93CF91DF910895DF93CF93CDB7DEB793
:1014E000AFE5B0E0EFE5F0E080818F778C93CF91AE
:1014F000DF910895DF93CF93CDB7DEB7A5E5B0E0D8
:10150000E5E5F0E080818E7F8C93A5E5B0E0E5E530
:10151000F0E080818D7F8C93A5E5B0E0E5E5F0E01B
:1015200080818B7F8C93A5E5B0E0E5E5F0E08081DC
:10153000877F8C93A4E5B0E0E4E5F0E080818E7FC6
:101540008C93A5E5B0E0E5E5F0E0808183608C93C5
:10155000ABE5B0E0EBE5F0E0808180648C93A5E53D
:10156000B0E0E5E5F0E080818C608C93ABE5B0E025
:10157000EBE5F0E0808180688C93A4E5B0E0E4E5E1
:10158000F0E080818F7B8C93ABE5B0E0EBE5F0E0A1
:1015900080818F7D8C93CF91DF910895DF93CF93DE
:1015A000CDB7DEB7ABE5B0E0EBE5F0E0808180647D
:1015B0008C93CF91DF910895DF93CF93CDB7DEB7B2
:1015C000ABE5B0E0EBE5F0E080818F7B8C93CF91D1
:1015D000DF910895DF93CF93CDB7DEB7ABE5B0E0F1
:1015E000EBE5F0E0808180688C93CF91DF910895E6
:1015F000DF93CF93CDB7DEB7ABE5B0E0EBE5F0E03E
:1016000080818F778C93CF91DF910895DF93CF9373
:10161000CDB7DEB7ABE5B0E0EBE5F0E0808180620E
:101620008C93CF91DF910895DF93CF93CDB7DEB741
:10163000ABE5B0E0EBE5F0E080818F7D8C93CF915E
:10164000DF910895DF93CF9300D0CDB7DEB79A83B3
:10165000898389819A8190937900809378000F9093
:101660000F90CF91DF9108951F920F920FB60F92B6
:1016700011242F933F934F935F936F937F938F9397
:101680009F93AF93BF93EF93FF93DF93CF93CDB728
:10169000DEB78091780090917900009729F0E09171
:1016A0007800F09179000995CF91DF91FF91EF914A
:1016B000BF91AF919F918F917F916F915F914F916A
:1016C0003F912F910F900FBE0F901F901895DF93B1
:1016D000CF9300D0CDB7DEB79A83898389819A8171
:1016E00090937B0080937A000F900F90CF91DF91C1
:1016F00008951F920F920FB60F9211242F933F93CC
:101700004F935F936F937F938F939F93AF93BF9309
:10171000EF93FF93DF93CF93CDB7DEB780917A003D
:1017200090917B00009729F0E0917A00F0917B0086
:101730000995CF91DF91FF91EF91BF91AF919F916B
:101740008F917F916F915F914F913F912F910F906A
:101750000FBE0F901F901895DF93CF9300D0CDB799
:10176000DEB79A83898389819A8190937D008093E3
:101770007C000F900F90CF91DF9108951F920F92F0
:101780000FB60F9211242F933F934F935F936F9354
:101790007F938F939F93AF93BF93EF93FF93DF93C9
:1017A000CF93CDB7DEB780917C0090917D000097FC
:1017B00029F0E0917C00F0917D000995CF91DF91B7
:1017C000FF91EF91BF91AF919F918F917F916F9119
:1017D0005F914F913F912F910F900FBE0F901F90EF
:1017E0001895DF93CF93CDB7DEB782E065E040E098
:1017F0000E94FC0682E064E040E00E94FC0682E079
:1018000063E040E00E94FC0682E062E040E00E946B
:10181000FC0683E067E040E00E94FC0683E066E0AF
:1018200040E00E94FC0683E065E040E00E94FC0688
:1018300083E063E040E00E94FC06CF91DF910895D1
:10184000DF93CF93CDB7DEB7A0970FB6F894DEBF86
:101850000FBECDBF18A28FEF8D8F85E08F8F59C13E
:1018600082E06F8D41E00E94FC0682E06F8D40E0D7
:101870000E94FC0787E08E8F3DC18E8D843009F079
:1018800096C08E8D81508E8F83E06E8D0E94FC08F5
:10189000882309F02CC180E090E0A0E2B2E4898FB7
:1018A0009A8FAB8FBC8F698D7A8D8B8D9C8D20E04C
:1018B00030E04AE755E40E941F02DC01CB018D8B2A
:1018C0009E8BAF8BB88F6D897E898F89988D20E034
:1018D00030E040E85FE30E94790388232CF481E044
:1018E00090E09C8B8B8B3FC06D897E898F89988D12
:1018F00020E03FEF4FE757E40E94190318164CF51C
:10190000698D7A8D8B8D9C8D20E030E040E251E432
:101910000E941F02DC01CB01BC01CD010E944900E5
:10192000DC01CB019C8B8B8B0FC080E991E09A8B03
:10193000898B89899A890197F1F79A8B898B8B8991
:101940009C8901979C8B8B8B8B899C89009769F76D
:1019500025C06D897E898F89988D0E944900DC01A0
:10196000CB019C8B8B8B8B899C89988B8F878F85E8
:1019700098890197F1F7988B8F8710C08F8D282F4A
:1019800030E085E090E0821B930B880F991F880F51
:10199000991FFC01E559FF4F80818D8F83E06E8D8B
:1019A0000E94FC08882351F381E088A3A7C083E04C
:1019B0006E8D0E94FC08882309F099C080E090E0B9
:1019C000A0E2B2E48B879C87AD87BE876B857C8560
:1019D0008D859E8520E030E04AE755E40E941F0295
:1019E000DC01CB018F839887A987BA876F817885BF
:1019F00089859A8520E030E040E85FE30E94790322
:101A000088232CF481E090E09E838D833FC06F811A
:101A1000788589859A8520E03FEF4FE757E40E945B
:101A2000190318164CF56B857C858D859E8520E005
:101A300030E040E251E40E941F02DC01CB01BC0116
:101A4000CD010E944900DC01CB019E838D830FC034
:101A500080E991E09C838B838B819C810197F1F7D6
:101A60009C838B838D819E8101979E838D838D8145
:101A70009E81009769F732C06F81788589859A8544
:101A80000E944900DC01CB019E838D838D819E8164
:101A90009A83898389819A810197F1F79A8389834F
:101AA0001DC08F8D282F30E085E090E0AC01421BF7
:101AB000530B8E8D282F30E087E090E0BC01621B35
:101AC000730B9B01CA01880F991F880F991F820F02
:101AD000931FFC01E859FF4F80818D8F83E06E8D4D
:101AE0000E94FC088823E9F281E088A307C08E8D5C
:101AF00081508E8F8E8D833008F0BFCE82E06F8D47
:101B000040E00E94FC0688A1813039F08F8D815021
:101B10008F8F8F8D823008F0A3CE8D8DA0960FB65B
:101B2000F894DEBF0FBECDBFCF91DF910895DF9354
:101B3000CF93CDB7DEB7E8970FB6F894DEBF0FBEF0
:101B4000CDBF80E090E0A8E4B2E48DAB9EABAFAB3C
:101B5000B8AF6DA97EA98FA998AD20E030E04AE723
:101B600055E40E941F02DC01CB0189AB9AABABAB01
:101B7000BCAB69A97AA98BA99CA920E030E040E818
:101B80005FE30E94790388232CF481E090E098AB16
:101B90008FA73FC069A97AA98BA99CA920E03FEF34
:101BA0004FE757E40E94190318164CF56DA97EA95A
:101BB0008FA998AD20E030E040E251E40E941F027E
:101BC000DC01CB01BC01CD010E944900DC01CB014D
:101BD00098AB8FA70FC080E991E09EA78DA78DA538
:101BE0009EA50197F1F79EA78DA78FA598A90197AC
:101BF00098AB8FA78FA598A9009769F714C069A91A
:101C00007AA98BA99CA90E944900DC01CB0198AB61
:101C10008FA78FA598A99CA78BA78BA59CA501979B
:101C2000F1F79CA78BA780E062E041E00E94FC06F0
:101C300080E063E041E00E94FC0681E063E040E078
:101C40000E94FC0781E060E041E00E94FC0681E028
:101C500061E041E00E94FC0681E062E041E00E9418
:101C6000FC0681E064E041E00E94FC0680E30E9403
:101C7000B00F80E090E0A0E2B1E48FA398A7A9A7FD
:101C8000BAA76FA178A589A59AA520E030E04AE718
:101C900055E40E941F02DC01CB018BA39CA3ADA3E2
:101CA000BEA36BA17CA18DA19EA120E030E040E805
:101CB0005FE30E94790388232CF481E090E09AA3EB
:101CC00089A33FC06BA17CA18DA19EA120E03FEF25
:101CD0004FE757E40E94190318164CF56FA178A539
:101CE00089A59AA520E030E040E251E40E941F025D
:101CF000DC01CB01BC01CD010E944900DC01CB011C
:101D00009AA389A30FC080E991E098A38F8F8F8D4C
:101D100098A10197F1F798A38F8F89A19AA10197B4
:101D20009AA389A389A19AA1009769F714C06BA10E
:101D30007CA18DA19EA10E944900DC01CB019AA348
:101D400089A389A19AA19E8F8D8F8D8D9E8D0197DC
:101D5000F1F79E8F8D8F80E30E94B00F80E090E0BE
:101D6000A0E2B1E4898F9A8FAB8FBC8F698D7A8D99
:101D70008B8D9C8D20E030E04AE755E40E941F02E5
:101D8000DC01CB018D8B9E8BAF8BB88F6D897E89EB
:101D90008F89988D20E030E040E85FE30E9479036E
:101DA00088232CF481E090E09C8B8B8B3FC06D8965
:101DB0007E898F89988D20E03FEF4FE757E40E949E
:101DC000190318164CF5698D7A8D8B8D9C8D20E04A
:101DD00030E040E251E40E941F02DC01CB01BC0173
:101DE000CD010E944900DC01CB019C8B8B8B0FC085
:101DF00080E991E09A8B898B89899A890197F1F71B
:101E00009A8B898B8B899C8901979C8B8B8B8B8977
:101E10009C89009769F714C06D897E898F89988D98
:101E20000E944900DC01CB019C8B8B8B8B899C89A8
:101E3000988B8F878F8598890197F1F7988B8F877B
:101E400080E30E94B00F80E090E0A0E2B1E48B87D5
:101E50009C87AD87BE876B857C858D859E8520E0C0
:101E600030E04AE755E40E941F02DC01CB018F837A
:101E70009887A987BA876F81788589859A8520E0B8
:101E800030E040E85FE30E94790388232CF481E08E
:101E900090E09E838D833FC06F81788589859A8588
:101EA00020E03FEF4FE757E40E94190318164CF566
:101EB0006B857C858D859E8520E030E040E251E495
:101EC0000E941F02DC01CB01BC01CD010E94490030
:101ED000DC01CB019E838D830FC080E991E09C8360
:101EE0008B838B819C810197F1F79C838B838D8100
:101EF0009E8101979E838D838D819E81009769F7D6
:101F000014C06F81788589859A850E944900DC011B
:101F1000CB019E838D838D819E819A838983898164
:101F20009A810197F1F79A83898380E20E94B00F2A
:101F300081E080937E0088E20E94B00F8CE00E94D6
:101F4000B00F81E00E94B00F86E00E94B00FE896CB
:101F50000FB6F894DEBF0FBECDBFCF91DF910895CD
:101F6000DF93CF93CDB7DEB7E9970FB6F894DEBF16
:101F70000FBECDBF89AF89AD82958F70982F9170BC
:101F800081E060E0492F0E94FC0789AD829586952B
:101F90008770982F917081E061E0492F0E94FC07C3
:101FA00089AD8295869586958370982F917081E092
:101FB00062E0492F0E94FC0789AD982F991F99274D
:101FC000991F81E064E0492F0E94FC0780E062E0F5
:101FD00041E00E94FC0780E090E0A0E0B0E48DAB1F
:101FE0009EABAFABB8AF6DA97EA98FA998AD20E02D
:101FF00030E04AE755E40E941F02DC01CB0189ABC7
:102000009AABABABBCAB69A97AA98BA99CA920E020
:1020100030E040E85FE30E94790388232CF481E0FC
:1020200090E098AB8FA73FC069A97AA98BA99CA91A
:1020300020E03FEF4FE757E40E94190318164CF5D4
:102040006DA97EA98FA998AD20E030E040E251E46F
:102050000E941F02DC01CB01BC01CD010E9449009E
:10206000DC01CB0198AB8FA70FC080E991E09EA760
:102070008DA78DA59EA50197F1F79EA78DA78FA58A
:1020800098A9019798AB8FA78FA598A9009769F792
:1020900014C069A97AA98BA99CA90E944900DC01F6
:1020A000CB0198AB8FA78FA598A99CA78BA78BA5D1
:1020B0009CA50197F1F79CA78BA780E062E040E028
:1020C0000E94FC0780E090E0A0E8BFE38FA398A700
:1020D000A9A7BAA76FA178A589A59AA520E030E0A5
:1020E0004AE755E40E941F02DC01CB018BA39CA3AD
:1020F000ADA3BEA36BA17CA18DA19EA120E030E089
:1021000040E85FE30E94790388232CF481E090E0AB
:102110009AA389A33FC06BA17CA18DA19EA120E0C1
:102120003FEF4FE757E40E94190318164CF56FA1D3
:1021300078A589A59AA520E030E040E251E40E940C
:102140001F02DC01CB01BC01CD010E944900DC0172
:10215000CB019AA389A30FC080E991E098A38F8F48
:102160008F8D98A10197F1F798A38F8F89A19AA1DC
:1021700001979AA389A389A19AA1009769F714C02E
:102180006BA17CA18DA19EA10E944900DC01CB0125
:102190009AA389A389A19AA19E8F8D8F8D8D9E8DE3
:1021A0000197F1F79E8F8D8F80917E00813009F02D
:1021B00014C189AD982F917081E060E0492F0E9491
:1021C000FC0789AD8695982F917081E061E0492FD9
:1021D0000E94FC0789AD86958695982F917081E0C5
:1021E00062E0492F0E94FC0789AD86958695869509
:1021F000982F917081E064E0492F0E94FC0780E0F5
:1022000062E041E00E94FC0780E090E0A0E0B0E4E2
:10221000898F9A8FAB8FBC8F698D7A8D8B8D9C8DBA
:1022200020E030E04AE755E40E941F02DC01CB01C8
:102230008D8B9E8BAF8BB88F6D897E898F89988DA2
:1022400020E030E040E85FE30E94790388232CF42B
:1022500081E090E09C8B8B8B3FC06D897E898F895C
:10226000988D20E03FEF4FE757E40E9419031816BE
:102270004CF5698D7A8D8B8D9C8D20E030E040E2AD
:1022800051E40E941F02DC01CB01BC01CD010E9480
:102290004900DC01CB019C8B8B8B0FC080E991E066
:1022A0009A8B898B89899A890197F1F79A8B898B07
:1022B0008B899C8901979C8B8B8B8B899C89009740
:1022C00069F714C06D897E898F89988D0E944900B5
:1022D000DC01CB019C8B8B8B8B899C89988B8F87A6
:1022E0008F8598890197F1F7988B8F8780E062E05E
:1022F00040E00E94FC0780E090E0A0E2B1E48B8720
:102300009C87AD87BE876B857C858D859E8520E00B
:1023100030E04AE755E40E941F02DC01CB018F83C5
:102320009887A987BA876F81788589859A8520E003
:1023300030E040E85FE30E94790388232CF481E0D9
:1023400090E09E838D833FC06F81788589859A85D3
:1023500020E03FEF4FE757E40E94190318164CF5B1
:102360006B857C858D859E8520E030E040E251E4E0
:102370000E941F02DC01CB01BC01CD010E9449007B
:10238000DC01CB019E838D830FC080E991E09C83AB
:102390008B838B819C810197F1F79C838B838D814B
:1023A0009E8101979E838D838D819E81009769F721
:1023B00014C06F81788589859A850E944900DC0167
:1023C000CB019E838D838D819E819A8389838981B0
:1023D0009A810197F1F79A838983E9960FB6F89469
:1023E000DEBF0FBECDBFCF91DF910895DF93CF93B6
:1023F000CDB7DEB7E9970FB6F894DEBF0FBECDBFFD
:1024000089AF89AD8F3F09F432C280E063E041E0DB
:102410000E94FC0789AD82958F70982F917081E0A2
:1024200060E0492F0E94FC0789AD829586958770F0
:10243000982F917081E061E0492F0E94FC0789ADDF
:102440008295869586958370982F917081E062E0E1
:10245000492F0E94FC0789AD982F991F9927991F32
:1024600081E064E0492F0E94FC0780E062E041E0E7
:102470000E94FC0780E090E0A0E0B0E48DAB9EAB52
:10248000AFABB8AF6DA97EA98FA998AD20E030E0C1
:102490004AE755E40E941F02DC01CB0189AB9AABED
:1024A000ABABBCAB69A97AA98BA99CA920E030E0B1
:1024B00040E85FE30E94790388232CF481E090E0F8
:1024C00098AB8FA73FC069A97AA98BA99CA920E0E6
:1024D0003FEF4FE757E40E94190318164CF56DA91A
:1024E0007EA98FA998AD20E030E040E251E40E943F
:1024F0001F02DC01CB01BC01CD010E944900DC01BF
:10250000CB0198AB8FA70FC080E991E09EA78DA764
:102510008DA59EA50197F1F79EA78DA78FA598A9D8
:10252000019798AB8FA78FA598A9009769F714C05A
:1025300069A97AA98BA99CA90E944900DC01CB0159
:1025400098AB8FA78FA598A99CA78BA78BA59CA5B7
:102550000197F1F79CA78BA780E062E040E00E9422
:10256000FC0780E090E0A0E8BFE38FA398A7A9A7AD
:10257000BAA76FA178A589A59AA520E030E04AE71F
:1025800055E40E941F02DC01CB018BA39CA3ADA3E9
:10259000BEA36BA17CA18DA19EA120E030E040E80C
:1025A0005FE30E94790388232CF481E090E09AA3F2
:1025B00089A33FC06BA17CA18DA19EA120E03FEF2C
:1025C0004FE757E40E94190318164CF56FA178A540
:1025D00089A59AA520E030E040E251E40E941F0264
:1025E000DC01CB01BC01CD010E944900DC01CB0123
:1025F0009AA389A30FC080E991E098A38F8F8F8D54
:1026000098A10197F1F798A38F8F89A19AA10197BB
:102610009AA389A389A19AA1009769F714C06BA115
:102620007CA18DA19EA10E944900DC01CB019AA34F
:1026300089A389A19AA19E8F8D8F8D8D9E8D0197E3
:10264000F1F79E8F8D8F89AD982F917081E060E0BA
:10265000492F0E94FC0789AD8695982F917081E0E3
:1026600061E0492F0E94FC0789AD86958695982FD9
:10267000917081E062E0492F0E94FC0789AD869548
:1026800086958695982F917081E064E0492F0E948D
:10269000FC0780E062E041E00E94FC0780E090E0FF
:1026A000A0E0B0E4898F9A8FAB8FBC8F698D7A8D53
:1026B0008B8D9C8D20E030E04AE755E40E941F029C
:1026C000DC01CB018D8B9E8BAF8BB88F6D897E89A2
:1026D0008F89988D20E030E040E85FE30E94790325
:1026E00088232CF481E090E09C8B8B8B3FC06D891C
:1026F0007E898F89988D20E03FEF4FE757E40E9455
:10270000190318164CF5698D7A8D8B8D9C8D20E000
:1027100030E040E251E40E941F02DC01CB01BC0129
:10272000CD010E944900DC01CB019C8B8B8B0FC03B
:1027300080E991E09A8B898B89899A890197F1F7D1
:102740009A8B898B8B899C8901979C8B8B8B8B892E
:102750009C89009769F714C06D897E898F89988D4F
:102760000E944900DC01CB019C8B8B8B8B899C895F
:10277000988B8F878F8598890197F1F7988B8F8732
:1027800080E062E040E00E94FC0780E090E0A0E290
:10279000B1E48B879C87AD87BE876B857C858D85F3
:1027A0009E8520E030E04AE755E40E941F02DC01EC
:1027B000CB018F839887A987BA876F8178858985B0
:1027C0009A8520E030E040E85FE30E9479038823A7
:1027D0002CF481E090E09E838D833FC06F817885EB
:1027E00089859A8520E03FEF4FE757E40E9419035F
:1027F00018164CF56B857C858D859E8520E030E034
:1028000040E251E40E941F02DC01CB01BC01CD017A
:102810000E944900DC01CB019E838D830FC080E9BB
:1028200091E09C838B838B819C810197F1F79C8342
:102830008B838D819E8101979E838D838D819E8167
:10284000009769F714C06F81788589859A850E9401
:102850004900DC01CB019E838D838D819E819A830B
:10286000898389819A810197F1F79A838983E9960F
:102870000FB6F894DEBF0FBECDBFCF91DF910895A4
:10288000DF93CF9300D000D000D0CDB7DEB78B83DD
:102890006C8380E063E040E00E94FC071A828C8138
:1028A000282F30E03E832D838D819E8181309105DC
:1028B000B9F02D813E81223031052CF48D819E812D
:1028C000009761F015C02D813E812230310559F00D
:1028D0008D819E818330910549F00AC01A8208C01B
:1028E00080E48A8305C084E18A8302C084E58A8308
:1028F0009A818B81890F8A838A8180688983898103
:102900000E94B00F26960FB6F894DEBF0FBECDBF63
:10291000CF91DF910895DF93CF9300D00F92CDB781
:10292000DEB79B838A8380E063E041E00E94FC077E
:1029300019820EC08981282F30E08A819B81FC0199
:10294000E20FF31F80810E94B00F89818F5F89831E
:102950008981282F30E08A819B81FC01E20FF31FDF
:102960008081882339F70F900F900F90CF91DF91DE
:102970000895DF93CF93CDB7DEB72E970FB6F894B7
:10298000DEBF0FBECDBF80E063E040E00E94FC07E9
:1029900081E00E94B00F80E090E0A0E2B1E48B877C
:1029A0009C87AD87BE876B857C858D859E8520E065
:1029B00030E04AE755E40E941F02DC01CB018F831F
:1029C0009887A987BA876F81788589859A8520E05D
:1029D00030E040E85FE30E94790388232CF481E033
:1029E00090E09E838D833FC06F81788589859A852D
:1029F00020E03FEF4FE757E40E94190318164CF50B
:102A00006B857C858D859E8520E030E040E251E439
:102A10000E941F02DC01CB01BC01CD010E944900D4
:102A2000DC01CB019E838D830FC080E991E09C8304
:102A30008B838B819C810197F1F79C838B838D81A4
:102A40009E8101979E838D838D819E81009769F77A
:102A500014C06F81788589859A850E944900DC01C0
:102A6000CB019E838D838D819E819A838983898109
:102A70009A810197F1F79A8389832E960FB6F8947D
:102A8000DEBF0FBECDBFCF91DF910895EF92FF92D1
:102A90000F931F93DF93CF93CDB7DEB728970FB671
:102AA000F894DEBF0FBECDBF6D837E838F83988782
:102AB00081E090E0A0E0B0E089839A83AB83BC839F
:102AC0008D819E81AF81B8850097A105B105D1F5B3
:102AD00080E30E94F6116BC089819A81AB81BC8131
:102AE0002AE030E040E050E0BC01CD010E94731AC2
:102AF0007B018C018D819E81AF81B8852AE030E019
:102B000040E050E0BC01CD010E94921ADC01CB01F3
:102B10008E0D9F1DA01FB11F89839A83AB83BC8339
:102B20008D819E81AF81B8852AE030E040E050E0A1
:102B3000BC01CD010E94921ADA01C9018D839E83E6
:102B4000AF83B8878D819E81AF81B8850097A1053D
:102B5000B10511F623C089819A81AB81BC812AE03D
:102B600030E040E050E0BC01CD010E94921ADC014F
:102B7000CB01805D0E94F61189819A81AB81BC8175
:102B80002AE030E040E050E0BC01CD010E94921A02
:102B9000DA01C90189839A83AB83BC8389819A81D5
:102BA000AB81BC8181309105A105B105A1F62896C4
:102BB0000FB6F894DEBF0FBECDBFCF91DF911F914E
:102BC0000F91FF90EF900895DF93CF93CDB7DEB7CD
:102BD00082E060E041E00E94FC0682E061E041E0CA
:102BE0000E94FC0682E062E041E00E94FC0682E076
:102BF00063E041E00E94FC0681E060E041E00E9469
:102C0000FC0681E061E041E00E94FC0681E062E0B8
:102C100041E00E94FC0681E063E041E00E94FC0686
:102C200082E060E041E00E94FC0782E061E041E078
:102C30000E94FC0782E062E041E00E94FC0782E023
:102C400063E041E00E94FC07CF91DF910895DF939C
:102C5000CF930F92CDB7DEB7898389818A3030F563
:102C60008981982F917081E060E0492F0E94FC07D4
:102C700089818695982F917081E061E0492F0E94AB
:102C8000FC07898186958695982F917081E062E096
:102C9000492F0E94FC078981869586958695982FF5
:102CA000917081E063E0492F0E94FC070F90CF9163
:102CB000DF910895DF93CF93CDB7DEB782E060E078
:102CC00041E00E94FC07CF91DF910895DF93CF93FD
:102CD000CDB7DEB782E060E040E00E94FC07CF9114
:102CE000DF910895DF93CF93CDB7DEB782E061E047
:102CF00041E00E94FC07CF91DF910895DF93CF93CD
:102D0000CDB7DEB782E061E040E00E94FC07CF91E2
:102D1000DF910895DF93CF93CDB7DEB782E062E015
:102D200041E00E94FC07CF91DF910895DF93CF939C
:102D3000CDB7DEB782E062E040E00E94FC07CF91B1
:102D4000DF910895DF93CF93CDB7DEB782E063E0E4
:102D500041E00E94FC07CF91DF910895DF93CF936C
:102D6000CDB7DEB782E063E040E00E94FC07CF9180
:102D7000DF9108951F920F920FB60F9211242F9397
:102D80003F934F935F936F937F938F939F93AF93F3
:102D9000BF93EF93FF93DF93CF93CDB7DEB78091CF
:102DA0007F0090918000009729F0E0917F00F091E2
:102DB00080000995CF91DF91FF91EF91BF91AF9185
:102DC0009F918F917F916F915F914F913F912F9143
:102DD0000F900FBE0F901F9018951F920F920FB675
:102DE0000F9211242F933F934F935F936F937F9391
:102DF0008F939F93AF93BF93EF93FF93DF93CF9303
:102E0000CDB7DEB78091810090918200009729F0C4
:102E1000E0918100F09182000995CF91DF91FF91BF
:102E2000EF91BF91AF919F918F917F916F915F9142
:102E30004F913F912F910F900FBE0F901F901895BB
:102E4000DF93CF93CDB7DEB7E8E5F0E08081817006
:102E5000CF91DF910895DF93CF93CDB7DEB7A8E58B
:102E6000B0E0E8E5F0E0808181608C93CF91DF9164
:102E70000895DF93CF93CDB7DEB7A8E5B0E0E8E5DE
:102E8000F0E0808182608C93CF91DF910895DF9391
:102E9000CF93CDB7DEB7E8E5F0E08081869581700D
:102EA000CF91DF910895DF93CF93CDB7DEB7A3E540
:102EB000B0E0E3E5F0E0808188608C93A3E5B0E0CA
:102EC000E3E5F0E080818F7B8C93A3E5B0E0E3E560
:102ED000F0E0808180688C93ECE5F0E084EF808303
:102EE000A9E5B0E0E9E5F0E0808182608C93A3E59C
:102EF000B0E0E3E5F0E080818F7E8C93A3E5B0E065
:102F0000E3E5F0E080818F7D8C93A3E5B0E0E3E51D
:102F1000F0E08081887F8C93A3E5B0E0E3E5F0E00A
:102F2000808185608C93CF91DF910895DF93CF935B
:102F30000F92CDB7DEB78983E2E5F0E08981808327
:102F40000F90CF91DF910895DF93CF930F92CDB77C
:102F5000DEB78983ECE5F0E0898180830F90CF9123
:102F6000DF910895DF93CF93CDB7DEB7E2E5F0E0D0
:102F70008081CF91DF910895DF93CF9300D0CDB7BB
:102F8000DEB79A83898389819A81909380008093A8
:102F90007F000F900F90CF91DF910895DF93CF9333
:102FA00000D0CDB7DEB79A83898389819A819093C7
:102FB0008200809381000F900F90CF91DF91089550
:102FC000DF93CF93CDB7DEB7A3E5B0E0E3E5F0E064
:102FD0008081887F8C93A3E5B0E0E3E5F0E0808119
:102FE0008C93CF91DF910895DF93CF93CDB7DEB768
:102FF000A3E5B0E0E3E5F0E08081887F8C93A3E572
:10300000B0E0E3E5F0E0808185608C93CF91DF91C3
:103010000895DF93CF93CDB7DEB70E94E0171092EB
:103020008300109284001092850010928600CF9148
:10303000DF910895DF93CF93CDB7DEB70E94F417E9
:10304000CF91DF910895DF93CF93CDB7DEB7809115
:1030500087008F5F8093870080918700843041F5DF
:1030600010928700809183008F5F8093830080910E
:1030700083008A30E9F410928300809184008F5F8E
:1030800080938400809184008A3091F410928400AF
:10309000809185008F5F80938500809185008A30C4
:1030A00039F410928500809186008F5F80938600AE
:1030B000CF91DF910895DF93CF93CDB7DEB7E89737
:1030C0000FB6F894DEBF0FBECDBF0E94E41583E0BB
:1030D00060E00E94D40583E060E00E944D060E94FB
:1030E0005E0A0E94531783E298E10E94BC170E9477
:1030F0007A0A89E098E10E94220B8AE198E10E9415
:10310000670BE5E3F0E081E08083809183000E941B
:10311000271680E090E0A0EAB0E48DAB9EABAFABA9
:10312000B8AF6DA97EA98FA998AD20E030E04AE73D
:1031300053E40E941F02DC01CB0189AB9AABABAB1D
:10314000BCAB69A97AA98BA99CA920E030E040E832
:103150005FE30E94790388232CF481E090E098AB30
:103160008FA73FC069A97AA98BA99CA920E03FEF4E
:103170004FE757E40E94190318164CF56DA97EA974
:103180008FA998AD20E030E040E251E40E941F0298
:10319000DC01CB01BC01CD010E944900DC01CB0167
:1031A00098AB8FA70FC089E190E09EA78DA78DA552
:1031B0009EA50197F1F79EA78DA78FA598A90197C6
:1031C00098AB8FA78FA598A9009769F714C069A934
:1031D0007AA98BA99CA90E944900DC01CB0198AB7C
:1031E0008FA78FA598A99CA78BA78BA59CA50197B6
:1031F000F1F79CA78BA7E5E3F0E082E08083809164
:1032000084000E94271680E090E0A0EAB0E48FA33B
:1032100098A7A9A7BAA76FA178A589A59AA520E024
:1032200030E04AE753E40E941F02DC01CB018BA38C
:103230009CA3ADA3BEA36BA17CA18DA19EA120E008
:1032400030E040E85FE30E94790388232CF481E0BA
:1032500090E09AA389A33FC06BA17CA18DA19EA100
:1032600020E03FEF4FE757E40E94190318164CF592
:103270006FA178A589A59AA520E030E040E251E44D
:103280000E941F02DC01CB01BC01CD010E9449005C
:10329000DC01CB019AA389A30FC089E190E098A338
:1032A0008F8F8F8D98A10197F1F798A38F8F89A1A8
:1032B0009AA101979AA389A389A19AA1009769F776
:1032C00014C06BA17CA18DA19EA10E944900DC01CC
:1032D000CB019AA389A389A19AA19E8F8D8F8D8DF1
:1032E0009E8D0197F1F79E8F8D8FE5E3F0E084E0EE
:1032F0008083809185000E94271680E090E0A0EAFC
:10330000B0E4898F9A8FAB8FBC8F698D7A8D8B8D4E
:103310009C8D20E030E04AE753E40E941F02DC016C
:10332000CB018D8B9E8BAF8BB88F6D897E898F89FA
:10333000988D20E030E040E85FE30E947903882325
:103340002CF481E090E09C8B8B8B3FC06D897E8953
:103350008F89988D20E03FEF4FE757E40E941903D3
:1033600018164CF5698D7A8D8B8D9C8D20E030E0A0
:1033700040E251E40E941F02DC01CB01BC01CD01FF
:103380000E944900DC01CB019C8B8B8B0FC089E133
:1033900090E09A8B898B89899A890197F1F79A8BAA
:1033A000898B8B899C8901979C8B8B8B8B899C89C2
:1033B000009769F714C06D897E898F89988D0E9466
:1033C0004900DC01CB019C8B8B8B8B899C89988B72
:1033D0008F878F8598890197F1F7988B8F87E5E321
:1033E000F0E088E08083809186000E94271680E0CC
:1033F00090E0A0EAB0E48B879C87AD87BE876B85A1
:103400007C858D859E8520E030E04AE753E40E946C
:103410001F02DC01CB018F839887A987BA876F8150
:10342000788589859A8520E030E040E85FE30E9456
:10343000790388232CF481E090E09E838D833FC044
:103440006F81788589859A8520E03FEF4FE757E4C3
:103450000E94190318164CF56B857C858D859E8519
:1034600020E030E040E251E40E941F02DC01CB0189
:10347000BC01CD010E944900DC01CB019E838D83FC
:103480000FC089E190E09C838B838B819C810197A5
:10349000F1F79C838B838D819E8101979E838D8321
:1034A0008D819E81009769F714C06F817885898529
:1034B0009A850E944900DC01CB019E838D838D811A
:1034C0009E819A83898389819A810197F1F79A83F2
:1034D000898383E064E00E94FC08813009F011CE0A
:1034E0000E94E0170ECE629FD001739FF001829F71
:1034F000E00DF11D649FE00DF11D929FF00D839F83
:10350000F00D749FF00D659FF00D9927729FB00D1F
:10351000E11DF91F639FB00DE11DF91FBD01CF0132
:1035200011240895A1E21A2EAA1BBB1BFD010DC098
:10353000AA1FBB1FEE1FFF1FA217B307E407F50763
:1035400020F0A21BB30BE40BF50B661F771F881F3F
:10355000991F1A9469F760957095809590959B01D5
:10356000AC01BD01CF0108952F923F924F925F921F
:103570006F927F928F929F92AF92BF92CF92DF9283
:10358000EF92FF920F931F93CF93DF93CDB7DEB7E8
:10359000CA1BDB0B0FB6F894DEBF0FBECDBF09947C
:1035A0002A88398848885F846E847D848C849B84D3
:1035B000AA84B984C884DF80EE80FD800C811B81E1
:1035C000AA81B981CE0FD11D0FB6F894DEBF0FBE10
:0A35D000CDBFED010895F894FFCF80
:1035DA0000000000000000000102030405060708BD
:0835EA000900633D2B2D2F2A7F
:00000001FF
